{
  "contractName": "VibraniumExchange",
  "abi": [
    {
      "inputs": [
        {
          "internalType": "contract Vibranium",
          "name": "_vibranium",
          "type": "address"
        }
      ],
      "stateMutability": "nonpayable",
      "type": "constructor"
    },
    {
      "anonymous": false,
      "inputs": [
        {
          "indexed": false,
          "internalType": "address",
          "name": "account",
          "type": "address"
        },
        {
          "indexed": false,
          "internalType": "uint256",
          "name": "oldVibraniumRate",
          "type": "uint256"
        },
        {
          "indexed": false,
          "internalType": "uint256",
          "name": "newVibraniumRate",
          "type": "uint256"
        }
      ],
      "name": "ChangePrice",
      "type": "event"
    },
    {
      "anonymous": false,
      "inputs": [
        {
          "indexed": true,
          "internalType": "address",
          "name": "previousOwner",
          "type": "address"
        },
        {
          "indexed": true,
          "internalType": "address",
          "name": "newOwner",
          "type": "address"
        }
      ],
      "name": "OwnershipTransferred",
      "type": "event"
    },
    {
      "anonymous": false,
      "inputs": [
        {
          "indexed": false,
          "internalType": "address",
          "name": "account",
          "type": "address"
        },
        {
          "indexed": false,
          "internalType": "uint256",
          "name": "vibraniumRate",
          "type": "uint256"
        }
      ],
      "name": "SaleStarted",
      "type": "event"
    },
    {
      "anonymous": false,
      "inputs": [
        {
          "indexed": false,
          "internalType": "address",
          "name": "account",
          "type": "address"
        }
      ],
      "name": "SaleStopped",
      "type": "event"
    },
    {
      "anonymous": false,
      "inputs": [
        {
          "indexed": false,
          "internalType": "address",
          "name": "transferAddress",
          "type": "address"
        },
        {
          "indexed": false,
          "internalType": "uint256",
          "name": "transferAmount",
          "type": "uint256"
        }
      ],
      "name": "TransferVibranium",
      "type": "event"
    },
    {
      "anonymous": false,
      "inputs": [
        {
          "indexed": false,
          "internalType": "address",
          "name": "account",
          "type": "address"
        },
        {
          "indexed": false,
          "internalType": "address",
          "name": "vibranium",
          "type": "address"
        },
        {
          "indexed": false,
          "internalType": "uint256",
          "name": "amount",
          "type": "uint256"
        },
        {
          "indexed": false,
          "internalType": "uint256",
          "name": "vibraniumRate",
          "type": "uint256"
        }
      ],
      "name": "VibraniumPurchased",
      "type": "event"
    },
    {
      "anonymous": false,
      "inputs": [
        {
          "indexed": false,
          "internalType": "address",
          "name": "account",
          "type": "address"
        },
        {
          "indexed": false,
          "internalType": "uint256",
          "name": "amount",
          "type": "uint256"
        }
      ],
      "name": "ethWithdrawn",
      "type": "event"
    },
    {
      "inputs": [],
      "name": "name",
      "outputs": [
        {
          "internalType": "string",
          "name": "",
          "type": "string"
        }
      ],
      "stateMutability": "view",
      "type": "function",
      "constant": true
    },
    {
      "inputs": [],
      "name": "owner",
      "outputs": [
        {
          "internalType": "address",
          "name": "",
          "type": "address"
        }
      ],
      "stateMutability": "view",
      "type": "function",
      "constant": true
    },
    {
      "inputs": [],
      "name": "renounceOwnership",
      "outputs": [],
      "stateMutability": "nonpayable",
      "type": "function"
    },
    {
      "inputs": [
        {
          "internalType": "address",
          "name": "newOwner",
          "type": "address"
        }
      ],
      "name": "transferOwnership",
      "outputs": [],
      "stateMutability": "nonpayable",
      "type": "function"
    },
    {
      "inputs": [],
      "name": "vibranium",
      "outputs": [
        {
          "internalType": "contract Vibranium",
          "name": "",
          "type": "address"
        }
      ],
      "stateMutability": "view",
      "type": "function",
      "constant": true
    },
    {
      "inputs": [],
      "name": "retrieveSaleStatus",
      "outputs": [
        {
          "internalType": "bool",
          "name": "",
          "type": "bool"
        }
      ],
      "stateMutability": "view",
      "type": "function",
      "constant": true
    },
    {
      "inputs": [],
      "name": "retrieveVibraniumRate",
      "outputs": [
        {
          "internalType": "uint256",
          "name": "",
          "type": "uint256"
        }
      ],
      "stateMutability": "view",
      "type": "function",
      "constant": true
    },
    {
      "inputs": [
        {
          "internalType": "address",
          "name": "_to",
          "type": "address"
        },
        {
          "internalType": "uint256",
          "name": "_amount",
          "type": "uint256"
        }
      ],
      "name": "transferVibranium",
      "outputs": [],
      "stateMutability": "nonpayable",
      "type": "function"
    },
    {
      "inputs": [
        {
          "internalType": "uint256",
          "name": "_vibraniumRate",
          "type": "uint256"
        }
      ],
      "name": "startSale",
      "outputs": [],
      "stateMutability": "nonpayable",
      "type": "function"
    },
    {
      "inputs": [],
      "name": "stopSale",
      "outputs": [],
      "stateMutability": "nonpayable",
      "type": "function"
    },
    {
      "inputs": [
        {
          "internalType": "uint256",
          "name": "_ethAmount",
          "type": "uint256"
        }
      ],
      "name": "withdrawEth",
      "outputs": [],
      "stateMutability": "nonpayable",
      "type": "function"
    },
    {
      "inputs": [
        {
          "internalType": "uint256",
          "name": "_newVibraniumRate",
          "type": "uint256"
        }
      ],
      "name": "changeRate",
      "outputs": [],
      "stateMutability": "nonpayable",
      "type": "function"
    },
    {
      "inputs": [],
      "name": "buyVibranium",
      "outputs": [],
      "stateMutability": "payable",
      "type": "function",
      "payable": true
    }
  ],
  "bytecode": "0x60806040526040518060400160405280601a81526020017f56696272616e69756d20496e7374616e742045786368616e67650000000000008152506001908051906020019062000051929190620001b1565b503480156200005f57600080fd5b506040516200190238038062001902833981810160405281019062000085919062000278565b6000620000a0620001a9640100000000026401000000009004565b9050806000806101000a81548173ffffffffffffffffffffffffffffffffffffffff021916908373ffffffffffffffffffffffffffffffffffffffff1602179055508073ffffffffffffffffffffffffffffffffffffffff16600073ffffffffffffffffffffffffffffffffffffffff167f8be0079c531659141344cd1fd0a4f28419497f9722a3daafe3b4186f6b6457e060405160405180910390a35080600260006101000a81548173ffffffffffffffffffffffffffffffffffffffff021916908373ffffffffffffffffffffffffffffffffffffffff1602179055506000600260146101000a81548160ff0219169083151502179055506064600381905550506200036b565b600033905090565b828054620001bf90620002ec565b90600052602060002090601f016020900481019282620001e357600085556200022f565b82601f10620001fe57805160ff19168380011785556200022f565b828001600101855582156200022f579182015b828111156200022e57825182559160200191906001019062000211565b5b5090506200023e919062000242565b5090565b5b808211156200025d57600081600090555060010162000243565b5090565b600081519050620002728162000351565b92915050565b6000602082840312156200028b57600080fd5b60006200029b8482850162000261565b91505092915050565b6000620002b182620002cc565b9050919050565b6000620002c582620002a4565b9050919050565b600073ffffffffffffffffffffffffffffffffffffffff82169050919050565b600060028204905060018216806200030557607f821691505b602082108114156200031c576200031b62000322565b5b50919050565b7f4e487b7100000000000000000000000000000000000000000000000000000000600052602260045260246000fd5b6200035c81620002b8565b81146200036857600080fd5b50565b611587806200037b6000396000f3fe6080604052600436106100de576000357c01000000000000000000000000000000000000000000000000000000009004806374e7493b1161009c578063c311d04911610076578063c311d0491461022b578063df6a888914610254578063e36b0b371461027f578063f2fde38b14610296576100de565b806374e7493b146101ae5780638da5cb5b146101d7578063a8a9305314610202576100de565b8062a9443b146100e357806306fdde03146100ed5780630e3ab61d146101185780631734789a146101415780634876de091461016c578063715018a614610197575b600080fd5b6100eb6102bf565b005b3480156100f957600080fd5b50610102610560565b60405161010f9190611299565b60405180910390f35b34801561012457600080fd5b5061013f600480360381019061013a9190610f90565b6105ee565b005b34801561014d57600080fd5b506101566106ca565b604051610163919061133b565b60405180910390f35b34801561017857600080fd5b506101816106d4565b60405161018e9190611263565b60405180910390f35b3480156101a357600080fd5b506101ac6106eb565b005b3480156101ba57600080fd5b506101d560048036038101906101d09190610f90565b610825565b005b3480156101e357600080fd5b506101ec6108f6565b6040516101f991906111a3565b60405180910390f35b34801561020e57600080fd5b5061022960048036038101906102249190610f2b565b61091f565b005b34801561023757600080fd5b50610252600480360381019061024d9190610f90565b610ad7565b005b34801561026057600080fd5b50610269610c07565b604051610276919061127e565b60405180910390f35b34801561028b57600080fd5b50610294610c2d565b005b3480156102a257600080fd5b506102bd60048036038101906102b89190610f02565b610cfd565b005b60011515600260149054906101000a900460ff16151514610315576040517f08c379a000000000000000000000000000000000000000000000000000000000815260040161030c906112fb565b60405180910390fd5b6000600354346103259190611372565b905080600260009054906101000a900473ffffffffffffffffffffffffffffffffffffffff1673ffffffffffffffffffffffffffffffffffffffff166370a08231306040518263ffffffff167c010000000000000000000000000000000000000000000000000000000002815260040161039f91906111a3565b60206040518083038186803b1580156103b757600080fd5b505afa1580156103cb573d6000803e3d6000fd5b505050506040513d601f19601f820116820180604052508101906103ef9190610fb9565b1015610430576040517f08c379a0000000000000000000000000000000000000000000000000000000008152600401610427906112bb565b60405180910390fd5b600260009054906101000a900473ffffffffffffffffffffffffffffffffffffffff1673ffffffffffffffffffffffffffffffffffffffff1663a9059cbb33836040518363ffffffff167c01000000000000000000000000000000000000000000000000000000000281526004016104a9929190611203565b602060405180830381600087803b1580156104c357600080fd5b505af11580156104d7573d6000803e3d6000fd5b505050506040513d601f19601f820116820180604052508101906104fb9190610f67565b507f36558d3582e2dbced9f5f2c630408bcecc94de7022038a3887bb4a4468cea95033600260009054906101000a900473ffffffffffffffffffffffffffffffffffffffff168360035460405161055594939291906111be565b60405180910390a150565b6001805461056d9061146b565b80601f01602080910402602001604051908101604052809291908181526020018280546105999061146b565b80156105e65780601f106105bb576101008083540402835291602001916105e6565b820191906000526020600020905b8154815290600101906020018083116105c957829003601f168201915b505050505081565b6105f6610ea6565b73ffffffffffffffffffffffffffffffffffffffff166106146108f6565b73ffffffffffffffffffffffffffffffffffffffff161461066a576040517f08c379a00000000000000000000000000000000000000000000000000000000081526004016106619061131b565b60405180910390fd5b6001600260146101000a81548160ff021916908315150217905550806003819055507f93b49cdc93b4aac9ef5dddba39b2cba1a9e793599d6d493b381a8ec0a43ec59a336003546040516106bf929190611203565b60405180910390a150565b6000600354905090565b6000600260149054906101000a900460ff16905090565b6106f3610ea6565b73ffffffffffffffffffffffffffffffffffffffff166107116108f6565b73ffffffffffffffffffffffffffffffffffffffff1614610767576040517f08c379a000000000000000000000000000000000000000000000000000000000815260040161075e9061131b565b60405180910390fd5b600073ffffffffffffffffffffffffffffffffffffffff1660008054906101000a900473ffffffffffffffffffffffffffffffffffffffff1673ffffffffffffffffffffffffffffffffffffffff167f8be0079c531659141344cd1fd0a4f28419497f9722a3daafe3b4186f6b6457e060405160405180910390a360008060006101000a81548173ffffffffffffffffffffffffffffffffffffffff021916908373ffffffffffffffffffffffffffffffffffffffff160217905550565b61082d610ea6565b73ffffffffffffffffffffffffffffffffffffffff1661084b6108f6565b73ffffffffffffffffffffffffffffffffffffffff16146108a1576040517f08c379a00000000000000000000000000000000000000000000000000000000081526004016108989061131b565b60405180910390fd5b6000600354905081600381905550600060035490507fe5de233c6530662ac259214d2d41e53a2947e4f5f7db51d03ba4a81d7ddccbf73383836040516108e99392919061122c565b60405180910390a1505050565b60008060009054906101000a900473ffffffffffffffffffffffffffffffffffffffff16905090565b610927610ea6565b73ffffffffffffffffffffffffffffffffffffffff166109456108f6565b73ffffffffffffffffffffffffffffffffffffffff161461099b576040517f08c379a00000000000000000000000000000000000000000000000000000000081526004016109929061131b565b60405180910390fd5b81600560006101000a81548173ffffffffffffffffffffffffffffffffffffffff021916908373ffffffffffffffffffffffffffffffffffffffff16021790555080600681905550600260009054906101000a900473ffffffffffffffffffffffffffffffffffffffff1673ffffffffffffffffffffffffffffffffffffffff1663a9059cbb600560009054906101000a900473ffffffffffffffffffffffffffffffffffffffff166006546040518363ffffffff167c0100000000000000000000000000000000000000000000000000000000028152600401610a80929190611203565b602060405180830381600087803b158015610a9a57600080fd5b505af1158015610aae573d6000803e3d6000fd5b505050506040513d601f19601f82011682018060405250810190610ad29190610f67565b505050565b610adf610ea6565b73ffffffffffffffffffffffffffffffffffffffff16610afd6108f6565b73ffffffffffffffffffffffffffffffffffffffff1614610b53576040517f08c379a0000000000000000000000000000000000000000000000000000000008152600401610b4a9061131b565b60405180910390fd5b806004819055506004543073ffffffffffffffffffffffffffffffffffffffff16311015610b8057600080fd5b3373ffffffffffffffffffffffffffffffffffffffff166108fc6004549081150290604051600060405180830381858888f19350505050158015610bc8573d6000803e3d6000fd5b507fa3ba2f2c229d01f74221c000456995f2802d90f5ff58ffddbe4a6089605f31b333600454604051610bfc929190611203565b60405180910390a150565b600260009054906101000a900473ffffffffffffffffffffffffffffffffffffffff1681565b610c35610ea6565b73ffffffffffffffffffffffffffffffffffffffff16610c536108f6565b73ffffffffffffffffffffffffffffffffffffffff1614610ca9576040517f08c379a0000000000000000000000000000000000000000000000000000000008152600401610ca09061131b565b60405180910390fd5b6000600260146101000a81548160ff0219169083151502179055507f76347af224becc86edd2be2d63ed537a8c521a61a6280d3871c71320225a141d33604051610cf391906111a3565b60405180910390a1565b610d05610ea6565b73ffffffffffffffffffffffffffffffffffffffff16610d236108f6565b73ffffffffffffffffffffffffffffffffffffffff1614610d79576040517f08c379a0000000000000000000000000000000000000000000000000000000008152600401610d709061131b565b60405180910390fd5b600073ffffffffffffffffffffffffffffffffffffffff168173ffffffffffffffffffffffffffffffffffffffff161415610de9576040517f08c379a0000000000000000000000000000000000000000000000000000000008152600401610de0906112db565b60405180910390fd5b8073ffffffffffffffffffffffffffffffffffffffff1660008054906101000a900473ffffffffffffffffffffffffffffffffffffffff1673ffffffffffffffffffffffffffffffffffffffff167f8be0079c531659141344cd1fd0a4f28419497f9722a3daafe3b4186f6b6457e060405160405180910390a3806000806101000a81548173ffffffffffffffffffffffffffffffffffffffff021916908373ffffffffffffffffffffffffffffffffffffffff16021790555050565b600033905090565b600081359050610ebd8161150c565b92915050565b600081519050610ed281611523565b92915050565b600081359050610ee78161153a565b92915050565b600081519050610efc8161153a565b92915050565b600060208284031215610f1457600080fd5b6000610f2284828501610eae565b91505092915050565b60008060408385031215610f3e57600080fd5b6000610f4c85828601610eae565b9250506020610f5d85828601610ed8565b9150509250929050565b600060208284031215610f7957600080fd5b6000610f8784828501610ec3565b91505092915050565b600060208284031215610fa257600080fd5b6000610fb084828501610ed8565b91505092915050565b600060208284031215610fcb57600080fd5b6000610fd984828501610eed565b91505092915050565b610feb816113cc565b82525050565b610ffa816113de565b82525050565b61100981611414565b82525050565b600061101a82611356565b6110248185611361565b9350611034818560208601611438565b61103d816114fb565b840191505092915050565b6000611055602583611361565b91507f4e6f7420656e6f75676820746f6b656e7320746f2066756c66696c6c2070757260008301527f63686173650000000000000000000000000000000000000000000000000000006020830152604082019050919050565b60006110bb602683611361565b91507f4f776e61626c653a206e6577206f776e657220697320746865207a65726f206160008301527f64647265737300000000000000000000000000000000000000000000000000006020830152604082019050919050565b6000611121601f83611361565b91507f53616c65206973206e6f742063757272656e746c792068617070656e696e67006000830152602082019050919050565b6000611161602083611361565b91507f4f776e61626c653a2063616c6c6572206973206e6f7420746865206f776e65726000830152602082019050919050565b61119d8161140a565b82525050565b60006020820190506111b86000830184610fe2565b92915050565b60006080820190506111d36000830187610fe2565b6111e06020830186610fe2565b6111ed6040830185611194565b6111fa6060830184611194565b95945050505050565b60006040820190506112186000830185610fe2565b6112256020830184611194565b9392505050565b60006060820190506112416000830186610fe2565b61124e6020830185611194565b61125b6040830184611194565b949350505050565b60006020820190506112786000830184610ff1565b92915050565b60006020820190506112936000830184611000565b92915050565b600060208201905081810360008301526112b3818461100f565b905092915050565b600060208201905081810360008301526112d481611048565b9050919050565b600060208201905081810360008301526112f4816110ae565b9050919050565b6000602082019050818103600083015261131481611114565b9050919050565b6000602082019050818103600083015261133481611154565b9050919050565b60006020820190506113506000830184611194565b92915050565b600081519050919050565b600082825260208201905092915050565b600061137d8261140a565b91506113888361140a565b9250817fffffffffffffffffffffffffffffffffffffffffffffffffffffffffffffffff04831182151516156113c1576113c061149d565b5b828202905092915050565b60006113d7826113ea565b9050919050565b60008115159050919050565b600073ffffffffffffffffffffffffffffffffffffffff82169050919050565b6000819050919050565b600061141f82611426565b9050919050565b6000611431826113ea565b9050919050565b60005b8381101561145657808201518184015260208101905061143b565b83811115611465576000848401525b50505050565b6000600282049050600182168061148357607f821691505b60208210811415611497576114966114cc565b5b50919050565b7f4e487b7100000000000000000000000000000000000000000000000000000000600052601160045260246000fd5b7f4e487b7100000000000000000000000000000000000000000000000000000000600052602260045260246000fd5b6000601f19601f8301169050919050565b611515816113cc565b811461152057600080fd5b50565b61152c816113de565b811461153757600080fd5b50565b6115438161140a565b811461154e57600080fd5b5056fea264697066735822122061f5bbfbc046143330eb654c5ec438bf0afe32eadc50aa31ecdfe77f7ddea00564736f6c63430008000033",
  "immutableReferences": {},
  "source": "pragma solidity ^0.8.0;\r\n\r\nimport \"./Vibranium.sol\";\r\nimport \"@openzeppelin/contracts/access/Ownable.sol\";\r\n\r\ncontract VibraniumExchange is Ownable {\r\n    string public name = \"Vibranium Instant Exchange\";\r\n    Vibranium public vibranium;\r\n    bool currentlySelling;\r\n    uint vibraniumRate;\r\n    uint ethAmount;\r\n    address transferAddress;\r\n    uint transferAmount;\r\n\r\n    event SaleStarted(\r\n        address account,\r\n        uint vibraniumRate\r\n    );\r\n\r\n    event VibraniumPurchased(\r\n        address account,\r\n        address vibranium,\r\n        uint amount,\r\n        uint vibraniumRate\r\n    );\r\n\r\n        event ethWithdrawn(\r\n        address account,\r\n        uint amount\r\n    );\r\n\r\n        event SaleStopped(\r\n        address account\r\n    );\r\n\r\n    event ChangePrice(\r\n        address account,\r\n        uint oldVibraniumRate,\r\n        uint newVibraniumRate\r\n    );\r\n\r\n    event TransferVibranium(\r\n        address transferAddress,\r\n        uint transferAmount  \r\n    );\r\n\r\n\r\n    constructor(Vibranium _vibranium) {\r\n        vibranium = _vibranium;\r\n\r\n        // Turn buy functions off by default\r\n        currentlySelling = false;\r\n\r\n        // Set vibraniumRate to default value so that it doesn't cause errors\r\n        vibraniumRate = 100;\r\n    }\r\n\r\n    function retrieveSaleStatus() public view returns (bool) {\r\n        return currentlySelling;\r\n    }\r\n\r\n        function retrieveVibraniumRate() public view returns (uint256) {\r\n        return vibraniumRate;\r\n    }\r\n\r\n    function transferVibranium(address _to, uint _amount) public onlyOwner {\r\n\r\n        transferAddress = _to;\r\n        transferAmount = _amount;\r\n\r\n        // At owner's request, transfers some of the exchange's Vibranium to an address specified\r\n        vibranium.transfer(transferAddress, transferAmount);\r\n    }\r\n\r\n    function startSale(uint _vibraniumRate) public onlyOwner {\r\n\r\n        // Turn buy functions on\r\n        currentlySelling = true;\r\n\r\n        // Set Vibranium Rate equal to input\r\n        vibraniumRate = _vibraniumRate;\r\n\r\n        // Emit SaleStarted Event\r\n        emit SaleStarted(msg.sender, vibraniumRate);\r\n    }\r\n\r\n    function stopSale() public onlyOwner {\r\n        // Turn off buy function\r\n        currentlySelling = false;\r\n\r\n                // Emit SaleStopped Event\r\n        emit SaleStopped(msg.sender);\r\n    }\r\n\r\n    function withdrawEth(uint _ethAmount) public onlyOwner {\r\n\r\n        // Set input amount as amount to be withdrawn\r\n        ethAmount = _ethAmount;\r\n\r\n        // Require that VibraniumExchange has enough Ether to pay out\r\n        require(address(this).balance >= ethAmount);\r\n\r\n        // Transfer eth to the owner\r\n        payable(msg.sender).transfer(ethAmount);\r\n\r\n        // Emit ethWithdrawn event\r\n        emit ethWithdrawn(msg.sender, ethAmount);\r\n    }\r\n\r\n    function changeRate(uint _newVibraniumRate) public onlyOwner {\r\n\r\n        // Record old rate\r\n        uint oldVibraniumRate = vibraniumRate;\r\n\r\n        // Set new rate\r\n        vibraniumRate = _newVibraniumRate;\r\n\r\n        //Record new price\r\n        uint newVibraniumRate = vibraniumRate;\r\n\r\n        // Emit ChangePrice Event\r\n        emit ChangePrice(msg.sender, oldVibraniumRate, newVibraniumRate);\r\n    }\r\n\r\n    function buyVibranium() public payable {\r\n\r\n        // Require that the sale be currently happening, return an error if it isn't\r\n        require(currentlySelling == true, \"Sale is not currently happening\");\r\n\r\n        // Calculate amount of Vibranium to be given to user\r\n        uint vibraniumAmount = msg.value * vibraniumRate;\r\n\r\n        // Require that VibraniumExchange has enough tokens, return an error if it doesn't\r\n        require(vibranium.balanceOf(address(this)) >= vibraniumAmount, \"Not enough tokens to fulfill purchase\");\r\n\r\n        // Transfer tokens to the user\r\n        vibranium.transfer(msg.sender, vibraniumAmount);\r\n\r\n        // Emit VibraniumPurchased event\r\n        emit VibraniumPurchased(msg.sender, address(vibranium), vibraniumAmount, vibraniumRate);\r\n    }\r\n    \r\n    \r\n    }\r\n\r\n\r\n\r\n\r\n\r\n\r\n\r\n",
  "sourcePath": "C:/Users/tombl/Documents/Code/Vibranium/contracts/VibraniumExchange.sol",
  "compiler": {
    "name": "solc",
    "version": "0.8.0+commit.c7dfd78e.Emscripten.clang"
  },
  "schemaVersion": "3.4.3",
  "updatedAt": "2022-01-22T19:55:58.997Z",
  "networkType": "ethereum",
  "devdoc": {
    "kind": "dev",
    "methods": {
      "owner()": {
        "details": "Returns the address of the current owner."
      },
      "renounceOwnership()": {
        "details": "Leaves the contract without owner. It will not be possible to call `onlyOwner` functions anymore. Can only be called by the current owner. NOTE: Renouncing ownership will leave the contract without an owner, thereby removing any functionality that is only available to the owner."
      },
      "transferOwnership(address)": {
        "details": "Transfers ownership of the contract to a new account (`newOwner`). Can only be called by the current owner."
      }
    },
    "version": 1
  },
  "userdoc": {
    "kind": "user",
    "methods": {},
    "version": 1
  }
}